:020000040000FA
:100000000C9463000C948B000C948B000C948B006C
:100010000C948B000C948B000C948B000C94F402C9
:100020000C948B000C948B000C948B000C948B0024
:100030000C948B000C948B000C948B000C948B0014
:100040000C94CE030C948B000C949C030C947603BC
:100050000C948B000C948B000C948B000C948B00F4
:100060000C948B000C948B000000000024002700EF
:100070002A000000000023002600290000000008DC
:10008000000201000003040700000000000000005F
:10009000010204081020408001020408102001021F
:1000A0000408102000000000250028002B00040494
:1000B0000404040404040202020202020303030310
:1000C00003030200170611241FBECFEFD8E0DEBFE6
:1000D000CDBF11E0A0E0B1E0E8E4FFE002C0059090
:1000E0000D92A631B107D9F721E0A6E1B1E001C038
:1000F0001D92A33DB207E1F710E0C3E6D0E004C0D3
:100100002197FE010E949C07C236D107C9F70E94C1
:1001100018040C94A2070C940000AF92BF92CF92E7
:10012000DF92EF92FF920F931F93CF93DF936C01B7
:100130007B018B01040F151FEB015E01AE18BF0898
:10014000C017D10759F06991D601ED91FC9101904A
:10015000F081E02DC6010995892B79F7C501DF9162
:10016000CF911F910F91FF90EF90DF90CF90BF90B4
:10017000AF900895FC01538D448D252F30E0842FDE
:1001800090E0821B930B541710F0CF9608950197BF
:100190000895FC01918D828D981761F0A28DAE0FAC
:1001A000BF2FB11D5D968C91928D9F5F9F73928F33
:1001B00090E008958FEF9FEF0895FC01918D828D5F
:1001C000981731F0828DE80FF11D858D90E008952C
:1001D0008FEF9FEF0895FC01918D228D892F90E084
:1001E000805C9F4F821B91098F739927089586E346
:1001F00091E00E94EB0021E0892B09F420E0822F9E
:10020000089580E090E0892B29F00E94F700811189
:100210000C9400000895FC01A48DA80FB92FB11D06
:10022000A35ABF4F2C91848D90E001968F7399272C
:10023000848FA689B7892C93A089B1898C9183700A
:1002400080648C93938D848D981306C00288F38903
:10025000E02D80818F7D80830895EF92FF920F9330
:100260001F93CF93DF93EC0181E0888F9B8D8C8D62
:1002700098131AC0E889F989808185FF15C09FB756
:10028000F894EE89FF896083E889F9898081837019
:10029000806480839FBF81E090E0DF91CF911F91C8
:1002A0000F91FF90EF900895F62E0B8D10E00F5FE9
:1002B0001F4F0F731127E02E8C8D8E110CC00FB6BF
:1002C00007FCFACFE889F989808185FFF5CFCE0157
:1002D0000E940B01F1CFEB8DEC0FFD2FF11DE35AC6
:1002E000FF4FF0829FB7F8940B8FEA89FB898081DA
:1002F0008062CFCFCF93DF93EC01888D8823B9F054
:10030000AA89BB89E889F9898C9185FD03C0808120
:1003100086FD0DC00FB607FCF7CF8C9185FFF2CF9D
:10032000808185FFEDCFCE010E940B01E9CFDF91E7
:10033000CF910895833081F028F4813099F0823094
:10034000A9F008958730A9F08830C9F08430B1F45D
:10035000809180008F7D03C0809180008F77809393
:100360008000089584B58F7784BD089584B58F7D0E
:10037000FBCF8091B0008F778093B000089580917B
:10038000B0008F7DF9CFCF93DF93282F30E0F901B4
:10039000E458FF4F8491F901E057FF4FD491F901E0
:1003A000E255FF4FC491CC23A1F081110E949A0124
:1003B000EC2FF0E0EE0FFF1FEE58FF4FA591B49128
:1003C000EC91ED2381E090E009F480E0DF91CF91A2
:1003D000089580E090E0FACF1F93CF93DF93282F0A
:1003E00030E0F901E458FF4F8491F901E057FF4FE5
:1003F000D491F901E255FF4FC491CC23A9F0162FF7
:1004000081110E949A01EC2FF0E0EE0FFF1FEC55D6
:10041000FF4FA591B4918FB7F894EC91111108C0DA
:10042000D095DE23DC938FBFDF91CF911F9108958C
:10043000DE2BF8CFCF93DF9390E0FC01E057FF4F26
:10044000249182559F4FFC0184918823D1F090E044
:10045000880F991FFC01E859FF4FA591B491FC0149
:10046000EC55FF4FC591D49161110EC09FB7F89420
:100470008C91E22FE0958E238C932881E223E883F0
:100480009FBFDF91CF9108958FB7F894EC91E22B45
:10049000EC938FBFF6CF3FB7F89480911B019091FA
:1004A0001C01A0911D01B0911E0126B5A89B05C09D
:1004B0002F3F19F00196A11DB11D3FBFBA2FA92FE3
:1004C000982F8827BC01CD01620F711D811D911DE0
:1004D00042E0660F771F881F991F4A95D1F708954C
:1004E0008F929F92AF92BF920F931F93CF93DF9300
:1004F000CDB7DEB7A1970FB6F894DEBF0FBECDBF64
:1005000019A2423008F44AE08E010F5D1F4F842E7D
:10051000912CB12CA12CA50194010E947A07E62F01
:10052000B901CA01EA3044F5E05DD801EE938D01CE
:10053000232B242B252B79F790E080E0109769F08E
:10054000FD0101900020E9F73197AF014A1B5B0BD9
:10055000BD0186E391E00E948D00A1960FB6F8944C
:10056000DEBF0FBECDBFDF91CF911F910F91BF9026
:10057000AF909F908F900895E95CD7CFCF92DF9294
:10058000EF92FF92CF93DF936C01990FEE08FF0873
:10059000F7FE23C06DE286E391E00E942D01EC019D
:1005A00066277727CB016C197D098E099F094AE0E0
:1005B0000E947002C80FD91F42E050E063E171E071
:1005C00086E391E00E948D008C0F9D1FDF91CF91FB
:1005D000FF90EF90DF90CF9008954AE0C701B601F9
:1005E0000E947002EC01E8CF1F920F920FB60F929B
:1005F00011242F933F934F935F936F937F938F9328
:100600009F93AF93BF93EF93FF93809124019091B9
:100610002501A0912601B0912701892B8A2B8B2BD4
:10062000D1F190911F01E0912001F0912101808191
:10063000892780838091240190912501A091260132
:10064000B0912701181619061A061B069CF4809112
:10065000240190912501A0912601B09127010197D5
:10066000A109B1098093240190932501A09326014B
:10067000B0932701FF91EF91BF91AF919F918F911F
:100680007F916F915F914F913F912F910F900FBE8E
:100690000F901F90189580910001E2ECF0E0E4913A
:1006A0009FEF90930001E13051F030F0E23069F0BB
:1006B00060E00E94EC01DECF10926E00F9CF9091C5
:1006C0006F009D7F90936F00F3CF909170009D7F9E
:1006D0009093700091E09093B0009091B100987F5A
:1006E00094609093B1001092B300E2CF1F920F92EA
:1006F0000FB60F9211242F933F934F935F936F93F5
:100700007F938F939F93AF93BF93EF93FF9386E372
:1007100091E00E940B01FF91EF91BF91AF919F91EA
:100720008F917F916F915F914F913F912F910F909A
:100730000FBE0F901F9018951F920F920FB60F9239
:1007400011242F938F939F93EF93FF93E091460192
:10075000F09147018081E0914C01F0914D0182FDC3
:100760001BC0908180914F018F5F8F73209150014A
:10077000821741F0E0914F01F0E0EA5CFE4F958F67
:1007800080934F01FF91EF919F918F912F910F9047
:100790000FBE0F901F9018958081F4CF1F920F927B
:1007A0000FB60F9211242F933F938F939F93AF9384
:1007B000BF938091170190911801A0911901B091F8
:1007C0001A013091160123E0230F2D3758F50196B9
:1007D000A11DB11D2093160180931701909318015C
:1007E000A0931901B0931A0180911B0190911C01F3
:1007F000A0911D01B0911E010196A11DB11D809314
:100800001B0190931C01A0931D01B0931E01BF9189
:10081000AF919F918F913F912F910F900FBE0F90AD
:100820001F90189526E8230F0296A11DB11DD2CF67
:10083000789484B5826084BD84B5816084BD85B5BB
:10084000826085BD85B5816085BD80916E008160C7
:1008500080936E001092810080918100826080936D
:10086000810080918100816080938100809180006F
:100870008160809380008091B10084608093B1009A
:100880008091B00081608093B00080917A00846094
:1008900080937A0080917A00826080937A008091C0
:1008A0007A00816080937A0080917A0080688093DA
:1008B0007A001092C100E0914601F091470182E078
:1008C0008083E0914201F09143011082E091440164
:1008D000F09145018FEC808310924E01E0914A0126
:1008E000F0914B0186E08083E0914801F09149014D
:1008F000808180618083E0914801F091490180818D
:1009000088608083E0914801F0914901808180688E
:100910008083E0914801F091490180818F7D80833F
:1009200060E082E00E941A0260E088E00E941A0201
:1009300060E08EE00E941A0261E08CE00E941A02E0
:1009400061E087E00E941A0261E08DE00E941A02D5
:100950000BEB10E04DE9242E40E0342E58EEC52E6E
:1009600053E0D52EE12CF12CD0E482E00E94C301AB
:10097000909335018093340188E00E94C3019093E5
:10098000330180933201D0937C0080917A0080649F
:1009900080937A0080917A0086FDFCCF8091780068
:1009A00060917900762F682F072E000C880B990B29
:1009B0000E94EE062EE03EEB44E050E40E94440626
:1009C0000E94B6067093310160933001809134012A
:1009D0009091350161E0019709F060E08CE00E94A0
:1009E000EC018091320190913301019709F0C9C067
:1009F000809100018D3031F5E2ECF0E0C491C7FD4B
:100A0000C0C061E08DE00E941A02CC2309F489C0C5
:100A1000C23009F09AC08091B100887F83608093D2
:100A2000B10089EF8093B300C0922401D0922501D8
:100A3000E0922601F09227018091700082608093FD
:100A400070009FC08F3F09F09CC08DE08093000133
:100A5000E2ECF0E0C491CF3F09F493C0C13019F14A
:100A600050F0C23009F43CC0C7FD8BC061E08DE09E
:100A70000E941A02CDCF14BC15BC84B5826084BD1F
:100A800085B5816085BDF8018491E82FF0E0EE0F17
:100A9000FF1FEC55FF4F85919491F1018491809354
:100AA0002301C0E0AECF10928000109281008091AF
:100AB00081008860809381008091810081608093B3
:100AC0008100F8018491E82FF0E0EE0FFF1FEC5554
:100AD000FF4F85919491F10184918093220191CFF0
:100AE0001092B0001092B1008091B00082608093AB
:100AF000B0008091B10081608093B100F8018491D1
:100B0000E82FF0E0EE0FFF1FEC55FF4F8591949119
:100B10009093210180932001F101849180931F0122
:100B200070CF85B5887F836085BD8CE787BDC09217
:100B30002C01D0922D01E0922E01F0922F01809194
:100B40006E00826080936E001CC0C13009F067C0E7
:100B500080918100887F8160809381008FE39FE195
:100B60009093890080938800C0922801D092290137
:100B7000E0922A01F0922B0180916F0082608093B5
:100B80006F00A0903001B090310161E09FE1A916A3
:100B9000B1040CF460E087E00E94EC01C5010E9402
:100BA000BE0280913201909133010E94BE02809179
:100BB0003401909135010E94BE020E944B022B012C
:100BC0003C0188EE882E83E0982EA12CB12C0E9447
:100BD0004B026419750986099709683E73408105BF
:100BE0009105A8F3E1E08E1A9108A108B108F8EE8A
:100BF0004F0EF3E05F1E611C711C81149104A1046F
:100C0000B10429F780E090E0892B09F4AECE0E9470
:100C1000F700882309F4A8CE0E940000A5CEC230B8
:100C200021F0C111AECF8FE381CF8FE3FBCEE6E39E
:100C3000F1E01382128288EE93E0A0E0B0E08483BA
:100C40009583A683B78385E091E09183808385ECCB
:100C500090E09587848784EC90E09787868780EC86
:100C600090E0918B808B81EC90E0938B828B82EC77
:100C700090E0958B848B86EC90E0978B868B118E21
:100C8000128E138E148E08950E9458060C944007FD
:100C90000E94390758F00E94320740F029F45F3F64
:100CA00029F00C94290751110C9474070C942F0708
:100CB0000E94510768F39923B1F3552391F3951BD3
:100CC000550BBB27AA2762177307840738F09F5F6D
:100CD0005F4F220F331F441FAA1FA9F335D00E2EDA
:100CE0003AF0E0E832D091505040E695001CCAF747
:100CF0002BD0FE2F29D0660F771F881FBB1F26170A
:100D000037074807AB07B0E809F0BB0B802DBF01E0
:100D1000FF2793585F4F3AF09E3F510578F00C94AF
:100D200029070C9474075F3FE4F3983ED4F386954B
:100D300077956795B795F7959F5FC9F7880F911DD0
:100D40009695879597F90895E1E0660F771F881FBC
:100D5000BB1F621773078407BA0720F0621B730B6F
:100D6000840BBA0BEE1F88F7E09508950E94BD062C
:100D70006894B1110C94740708950E94590788F083
:100D80009F5798F0B92F9927B751B0F0E1F0660F4F
:100D9000771F881F991F1AF0BA95C9F714C0B13090
:100DA00091F00E947307B1E008950C947307672FC8
:100DB000782F8827B85F39F0B93FCCF386957795BF
:100DC0006795B395D9F73EF49095809570956195A8
:100DD0007F4F8F4F9F4F0895E89409C097FB3EF4D3
:100DE00090958095709561957F4F8F4F9F4F992378
:100DF000A9F0F92F96E9BB279395F69587957795F6
:100E00006795B795F111F8CFFAF4BB0F11F460FFB5
:100E10001BC06F5F7F4F8F4F9F4F16C0882311F00D
:100E200096E911C0772321F09EE8872F762F05C021
:100E3000662371F096E8862F70E060E02AF09A95BC
:100E4000660F771F881FDAF7880F9695879597F9B1
:100E5000089597F99F6780E870E060E008959FEF3C
:100E600080EC089500240A94161617061806090641
:100E7000089500240A941216130614060506089510
:100E8000092E0394000C11F4882352F0BB0F40F498
:100E9000BF2B11F460FF04C06F5F7F4F8F4F9F4FD8
:100EA000089557FD9058440F551F59F05F3F71F05A
:100EB0004795880F97FB991F61F09F3F79F08795C1
:100EC0000895121613061406551FF2CF4695F1DF4A
:100ED00008C0161617061806991FF1CF86957105DA
:100EE000610508940895E894BB2766277727CB010E
:100EF00097F90895A1E21A2EAA1BBB1BFD010DC094
:100F0000AA1FBB1FEE1FFF1FA217B307E407F507B9
:100F100020F0A21BB30BE40BF50B661F771F881F95
:100F2000991F1A9469F760957095809590959B012B
:100F3000AC01BD01CF010895EE0FFF1F0590F491A4
:100F4000E02D0994F894FFCFFF000000002D018DE3
:0E0F500000BA007A01EB00C900DD000D0A00B6
:107E0000112484B714BE81FFF0D085E080938100F7
:107E100082E08093C00088E18093C10086E0809377
:107E2000C20080E18093C4008EE0C9D0259A86E02C
:107E300020E33CEF91E0309385002093840096BBD3
:107E4000B09BFECF1D9AA8958150A9F7CC24DD24C4
:107E500088248394B5E0AB2EA1E19A2EF3E0BF2EE7
:107E6000A2D0813461F49FD0082FAFD0023811F036
:107E7000013811F484E001C083E08DD089C08234E0
:107E800011F484E103C0853419F485E0A6D080C0E4
:107E9000853579F488D0E82EFF2485D0082F10E0AE
:107EA000102F00270E291F29000F111F8ED06801E7
:107EB0006FC0863521F484E090D080E0DECF843638
:107EC00009F040C070D06FD0082F6DD080E0C81688
:107ED00080E7D80618F4F601B7BEE895C0E0D1E017
:107EE00062D089930C17E1F7F0E0CF16F0E7DF06D8
:107EF00018F0F601B7BEE89568D007B600FCFDCFD4
:107F0000A601A0E0B1E02C9130E011968C91119780
:107F100090E0982F8827822B932B1296FA010C0160
:107F200087BEE89511244E5F5F4FF1E0A038BF0790
:107F300051F7F601A7BEE89507B600FCFDCF97BE46
:107F4000E89526C08437B1F42ED02DD0F82E2BD052
:107F50003CD0F601EF2C8F010F5F1F4F84911BD097
:107F6000EA94F801C1F70894C11CD11CFA94CF0C13
:107F7000D11C0EC0853739F428D08EE10CD085E9AC
:107F80000AD08FE07ACF813511F488E018D01DD067
:107F900080E101D065CF982F8091C00085FFFCCF94
:107FA0009093C60008958091C00087FFFCCF809118
:107FB000C00084FD01C0A8958091C6000895E0E648
:107FC000F0E098E1908380830895EDDF803219F02E
:107FD00088E0F5DFFFCF84E1DECF1F93182FE3DFCA
:107FE0001150E9F7F2DF1F91089580E0E8DFEE27F6
:047FF000FF270994CA
:027FFE00040479
:00000001FF
